:020000022000DC
:1060000000000120756302005D6302005F6302000F
:106010006163020063630200656302000000000028
:1060200000000000000000000000000067630200A4
:1060300069630200000000006B6302006D630200F0
:1060400011EA02006F63020075F70200E521030008
:106050006F6302006F63020071F602006F6302005B
:106060006F6302006F6302006F63020099550300C3
:106070006F6302006F6302006F6302006F630200D0
:106080006F630200719102006F6302006F63020090
:106090006F6302006F630200350C04006F6302003F
:1060A0006F6302006F6302006F6302006F630200A0
:1060B0006F6302006F630200000000000000000038
:1060C0006F6302006F6302006F6302006F63020080
:1060D0006F6302006F6302006F6302000000000044
:1060E00000000000000000000000000000000000B0
:1060F00000000000000000000000000000000000A0
:10610000000000000000000000000000000000008F
:10611000000000000000000000000000000000007F
:10612000000000000000000000000000000000006F
:10613000000000000000000000000000000000005F
:10614000000000000000000000000000000000004F
:10615000000000000000000000000000000000003F
:10616000000000000000000000000000000000002F
:10617000000000000000000000000000000000001F
:10618000000000000000000000000000000000000F
:1061900000000000000000000000000000000000FF
:1061A00000000000000000000000000000000000EF
:1061B00000000000000000000000000000000000DF
:1061C00000000000000000000000000000000000CF
:1061D00000000000000000000000000000000000BF
:1061E00000000000000000000000000000000000AF
:1061F000000000000000000000000000000000009F
:10620000354936480A1A02D0072291438D4634494F
:1062100034480A1A06D00722914381F309880222E2
:1062200082F3148830483149314A00F044F831484B
:106230003149324A00F03FF831483249324A00F0E1
:106240003AF832483249334A00F035F83248334997
:10625000334A00F030F833483349344A00F02BF821
:1062600033483449344A00F026F83448344900228F
:1062700000F02CF833483449002200F027F8334866
:106280003349091A082902DB002202604160314AC1
:1062900090471F481F49884205D00268043003B464
:1062A000904703BCF7E700208646EC46002000211B
:1062B000294A9047FEE7884207D0521A05D0037852
:1062C00001300B700131013AF9D17047884202D098
:1062D00002700130FAE770470000012000E0002062
:1062E0000000012000000120A0D60500742200203B
:1062F0002C2F0020D0630200D0630200383A040043
:10630000A0D605007422002074220020303C040036
:10631000303C0400303C0400303C0400303C0400BD
:10632000303C0400303C0400303C0400A0D60500A2
:1063300058E305002C2F00202C2F00202C2F0020AC
:10634000EC480020EC480020EC480020EC480020FD
:10635000EC6800209D630200D1550300FEE7FEE7D4
:10636000FEE7FEE7FEE7FEE7FEE7FEE7FEE7FEE705
:1063700000F002B8FFF7FCBF0F484FF00701884359
:1063800085460E4880470E48016841F4700101605F
:10639000BFF34F8FBFF36F8FFFF732BF09480A4932
:1063A0000A4A884207D0521A05D0037801300B7090
:1063B0000131013AF9D170470000012005DB0200EC
:1063C00088ED00E01C3C04006022002074220020C4
:1063D00000B585B00190019B002B0AD0074B43F01C
:1063E00001030393019B9B010293039B029898472F
:1063F00000E000BF05B05DF804FB00BF403C0400B6
:1064000000B583B00190019B002B0AD04FF47A7045
:10641000FFF7DEFF019B013B0193019B002BF5D1B0
:1064200000E000BF03B05DF804FB08B50FF01EFDEF
:1064300000BF08BD00B589B0039002910192019B95
:10644000002B33D00023079303230693029A079B64
:106450001344019A194600200FF092FC0590079A08
:10646000059B13440793019A059BD31A0193059B3F
:10647000002B13D10F4B1B7883F00103DBB2002BF1
:1064800013D10120FFF7BCFF069B013B0693069B3F
:10649000002B03D1074B00221A7007E0054B0122A5
:1064A0001A70019B002BD1D100E000BF00BF09B0E2
:1064B0005DF804FB2C2F002000B585B003900291FD
:1064C000054B00934023054A0299039800F012F807
:1064D00000BF05B05DF804FB35640200302F0020DA
:1064E00082B0019000BF02B0704782B0019000BF3F
:1064F00002B0704700B5A1B00590049103920293D9
:10650000049806F0F7FA039B1593029B1693002359
:10651000179300238DF8603000231993229B1A9360
:1065200000231F930FA91F9B0822049806F0BCFBB1
:1065300008231F93119B1293BDF84030ADF84C30E7
:10654000BDF84230ADF84E3000238DF851309DF843
:106550003C3003F00303DBB2012B26D10F9BC3F3C6
:1065600095231C939DF83C30C3F3C203DBB28DF836
:106570005030BDF83C30C3F38313DBB21B931B9B3D
:106580009A0009A91F9B049806F08EFB1B9B9B0099
:106590001F9A13441F9312AA09A915AB009313461F
:1065A0001B9A1C9801F01EF82FE09DF83C3003F078
:1065B0000303DBB2022B28D1BDF83E30C3F38913AD
:1065C0009BB21E939DF83C30C3F3C203DBB28DF83F
:1065D00050301E9B082B28BF08231D9307A91F9B23
:1065E0001D9A049806F060FB1F9A1D9B13441F938D
:1065F0001E9A1D9BD31A1E9315AB12AA07A81D99AC
:1066000001F092F81E9B002BE3D1049806F081FA6A
:1066100000BF21B05DF804FB00B583B00190019B81
:106620001B781A460C4B9B5C002B05D0019B043356
:1066300018460AF06BFB0BE0019B1B781A46064BD1
:106640009B5C002B04D1019B0C33184609F0F0FC35
:1066500000BF03B05DF804FB2038002000B587B010
:106660000390029113468DF8073000230593039B96
:106670001B781A46114B9B5C002B09D0039B0433FB
:106680009DF80720029918460AF0A2FB05900FE03A
:10669000039B1B781A46094B9B5C002B08D1039B7C
:1066A0000C339DF807200299184609F039FD059032
:1066B000059B184607B05DF804FB00BF203800209A
:1066C00082B001900091034B01221A7000BF02B00A
:1066D000704700BFB02F002030B58DB003468DF855
:1066E00007301A4B02AC1D460FCD0FC495E80F00C2
:1066F00084E80F00062302934FF0FF3303934FF01B
:10670000FF3304934FF0FF3305934FF0EB7308937F
:106710009DF80730002B01D00D4A00E0002202ABAB
:1067200019460C4807F090FF0B900B9B0A930A9BAD
:10673000002B04D0084A43210A9801F09BFB074A2A
:106740009DF80730137000BF0DB030BDB03C0400A1
:10675000C166020074220020483C0400B12F0020D2
:1067600000B583B000238DF807309DF80730184638
:10677000FFF7B2FF00BF03B05DF804FB00B589B0BE
:10678000039002910192019B8DF81F30124B002261
:106790001A709DF81F301A4602991048FFF75EFFE5
:1067A0000690069B0593059B002B04D00C4A5321B1
:1067B000059801F05FFB00BF0A4B1B78002B07D048
:1067C000054B1B78DBB283F00103DBB2002BF3D166
:1067D00000BF09B05DF804FBB02F00207422002038
:1067E000483C0400B12F002000B585B00390029111
:1067F000054B00934023054A02990398FFF77AFE60
:1068000000BF05B05DF804FB7D670200702F00201B
:1068100082B0019000BF02B07047000000B583B0A5
:1068200001900548FFF7F8FE0020FFF755FF00BF75
:1068300003B05DF804FB00BF7422002082B0019019
:10684000019BDB6801225A7100BF02B07047000053
:1068500000B583B04FF0FF330193FFF7E6FD04214D
:10686000114800F0DBFD0190019B002B03DA0F497A
:1068700041200CF099FB0C48FFF7E0FFFFF770FF99
:1068800004210B4800F0CAFD0190019B002B03DAA4
:10689000064948200CF088FB0548FFF7CFFF00BFF2
:1068A00003B05DF804FB00BFFC3B0400003D0400A6
:1068B0000C3C040000B583B001900091019B1B6863
:1068C0001B6800990198984700BF03B05DF804FB6E
:1068D00000B583B00190019B1B685B6801989847E5
:1068E00000BF03B05DF804FB00B583B00190019BCD
:1068F0001B689B680198984700BF03B05DF804FBD4
:1069000082B001900B468DF80330019BDB689DF847
:1069100003201A7100BF02B0704782B00190019B42
:10692000DB681B79184602B0704782B00190019B6A
:10693000DB6801225A7100BF02B0704782B001903B
:10694000019BDB685B79184602B0704700B585B0E3
:10695000019000910C4B01221A700C4806F02EF8A1
:106960000390039B002B01D0039B08E0084806F02E
:1069700035FC084A084BD31ADB080293002318465B
:1069800005B05DF804FB00BF1C310020EC3A0400A8
:106990006C3D0400FC3B0400143B0400024A034B22
:1069A000D31ADB0818467047FC3B0400143B040074
:1069B00000B587B001900B468DF803309DF8033089
:1069C000002B1FD0FFF7EAFF04900023059313E08C
:1069D000059B9B000E4A13440393039B1B881A4696
:1069E000019B1B689A4204D1019B059A1A600023FF
:1069F00009E0059B01330593059A049B9A42E7D36E
:106A0000052300E00023184607B05DF804FB00BF33
:106A10007422002000B585B001900B468DF803303C
:106A20009DF8032001AB11461846FFF7C1FF03464E
:106A3000002B07D1019BDB00054A13440393039B02
:106A40001B6800E00023184605B05DF804FB00BF9A
:106A5000143B040084B001900B468DF80330019B79
:106A6000DB00174A134402939DF80330013B032BCC
:106A70001CD801A252F823F0896A0200916A020030
:106A8000996A0200A36A020002238DF80F3011E018
:106A900004238DF80F300DE0029B1B798DF80F3029
:106AA00008E0029B5B798DF80F3003E000238DF83E
:106AB0000F3000BF9DF80F30184604B0704700BF7C
:106AC000143B040084B00190009100238DF80F3036
:106AD000019B1B7803F00403DBB2002B24D0019B45
:106AE0001B78C3F30103DBB2012B02D0022B0CD0C5
:106AF00017E0009B1B68019A1288C2F38312D2B27E
:106B000013449A1C009B1A600BE0009B1B68019ABF
:106B10005288C2F3891292B213449A1C009B1A60E5
:106B200000BF01238DF80F309DF80F30184604B0D8
:106B30007047000000B58BB00023ADF826303E480A
:106B400004F075FD3D4804F072FD3D4B9B680493D5
:106B50003C4B1B680693049A069B134002339B0030
:106B6000374A13440433089304AB19460898FFF7D7
:106B7000A9FF0346002B09D0049A069B1340023359
:106B80009B002F4A134404330893EDE700BF002312
:106B9000079311E0049B5A1C0492069A1340079A2B
:106BA000920001A90A44264902339B000B445B680A
:106BB0001360079B01330793079B012BEAD99DF8CC
:106BC0000430C3F30103DBB2012B10D0022B1CD124
:106BD000BDF80A30ADF82630BDF80630C3F389138E
:106BE0009BB203339A08049B1344049313E0BDF84B
:106BF0000A30ADF82630BDF80430C3F38313DBB29E
:106C00001A46049B1344049305E00F494FF4C270E5
:106C10000CF0CAF900BF094804F015FD0590059B6A
:106C2000002B02D0049B064A9360BDF8263018461C
:106C30000BB05DF804FB00BF343500203035002078
:106C40001C310020982200207C3D040000B585B056
:106C50000021074804F020FC0390039B0293029B51
:106C600083F310030193019B184605B05DF804FB04
:106C70003835002000B589B003900291019200934D
:106C8000039B1B0C0793FFF7E1FF0690FFF786FEBF
:106C90000246079B934204D3214940F2A9100CF00D
:106CA00083F9069B1904009B5A1C0A9B1340079A00
:106CB0000A431C4902339B000B445A60009A0A9B0A
:106CC000134002339B00174A134404330593039B7C
:106CD00003F00703D9B2059A137861F3C503137063
:106CE000019B03F00F03D9B2059A138861F389134E
:106CF0001380029BC3F31501059A136861F39F2368
:106D00001360059A1378012161F301031370059A4A
:106D100013786FF38203137000BF09B05DF804FBB2
:106D20007C3D04001C31002000B58DB00390029121
:106D300013468DF80730039B02330A9301238DF825
:106D4000273000238DF81B300DF11B03184601F08E
:106D5000E3FD404B5A68029B1A603F4B1A683D4B5B
:106D600099683C4B5B68CB1A134401330B9314E0D6
:106D700001213A4804F01FFCFFF7DCFE0790079959
:106D8000364804F018FC344B1A68324B9968314B82
:106D90005B68CB1A134401330B930A9A0B9B9A42FC
:106DA000E6D89DF82730002B48D0002305939DF8A6
:106DB0000730002B17D09DF81430012262F3010335
:106DC0008DF814309DF8143043F004038DF814301E
:106DD000039B03F00F03DAB2BDF8143062F389139A
:106DE000ADF8143016E09DF81430022262F301036E
:106DF0008DF814309DF8143043F004038DF81430EE
:106E0000039BC3F309039AB2BDF8163062F38F13E4
:106E1000ADF816300F4B5A680F4B1B681340023306
:106E20009B000C4A134404330893059A089B1A608C
:106E3000084B5A680A9B1344064A53609DF81B305E
:106E4000184601F07FFD9DF8273018460DB05DF81B
:106E500004FB00BF1C3100209822002038350020A0
:106E600000B58BB005900491039202931F4B1B68F1
:106E7000079306AB012219460298FFF755FF034618
:106E8000002B24D0069B023309930023089311E0C2
:106E9000089B9B00039A1A44099B591C0991079966
:106EA0000B401268124902339B000B445A60089B46
:106EB00001330893089A029B9A42E9D3069A079BEA
:106EC00000931346029A04990598FFF7D3FE084BE6
:106ED0001B78002B05D000BF00F096F80346002B6E
:106EE000FAD100BF0BB05DF804FB00BF9822002070
:106EF0001C31002000B583B00190009100230022D6
:106F000000990198FFF7ACFF00BF03B05DF804FBE8
:106F100000B587B0039002910192019B059305AAE9
:106F2000012302990398FFF79BFF00BF07B05DF8AC
:106F300004FB00B587B00390029101920093019B7E
:106F40000493009B059304AA022302990398FFF778
:106F500087FF00BF07B05DF804FB00B589B0039060
:106F6000029101920093019B0593009B06930A9B5B
:106F7000079305AA032302990398FFF771FF00BF47
:106F800009B05DF804FB00B589B00390029101924D
:106F90000093019B0493009B05930A9B06930B9B14
:106FA000079304AA042302990398FFF759FF00BF2F
:106FB00009B05DF804FB00B58BB00390029101921B
:106FC0000093019B0593009B06930C9B07930D9BDD
:106FD00008930E9B099305AA052302990398FFF7CE
:106FE0003FFF00BF0BB05DF804FB0000054B9A6843
:106FF000044B5B689A420CBF01230023DBB21846A6
:10700000704700BF1C31002000B599B0FFF7EEFFBC
:107010000346002B01D00023C0E19B4B0022C3F8A4
:107020001824BFF34F8F00BF974B9B680493974B77
:107030001B681093049A109B134002339B00924AE2
:107040001344043311930023179300231693002352
:107050000F9304AB19461198FFF734FD0346002B3C
:1070600019D0894BD3F81834002B14D1864B5A68A9
:10707000049B9A4205D8844B5B68834A9360002343
:107080008CE1049A109B134002339B007E4A134408
:1070900004331193DDE70023159311E0049B5A1C80
:1070A0000492109A1340159A920001A90A44764955
:1070B00002339B000B445B681360159B01331593EF
:1070C000159B012BEAD99DF8043003F00303DBB2D2
:1070D000022B40F09C80BDF80630C3F389139BB2AD
:1070E0000D93BDF80630C3F389139BB2502B28BF14
:1070F00050239BB20C930C9BC3F309039AB2BDF8C7
:10710000063062F38F13ADF806300C9B08330B93F7
:107110009DF80430C3F3C203DBB20F930B995C48B4
:1071200005F057FC1790179B002B00F0D3801798A1
:1071300005F0E0FC01A9169B0822179805F096FDC2
:10714000169B08331693049BDA43109B13400133BC
:107150009B000A930C9A0A9B9A4242D90A9B002BE5
:1071600008D0049A109B134002339B00464A1344F4
:10717000043300E0474B08930A9B002B02D00A9B84
:10718000DBB201E00C9BDBB28DF81F300A9B002BB9
:1071900001D0404B00E0002306930A9B002B06D051
:1071A0000C9BDAB20A9BDBB2D31ADBB200E00023FD
:1071B0008DF817309DF81F20169B0899179805F039
:1071C00055FD9DF81F30169A13441693069B002B0D
:1071D00016D09DF81720169B0699179805F046FDC6
:1071E0000EE0049A109B134002339B00264A13447E
:1071F00004330993169B0C9A0999179805F036FDEC
:107200000D9B03339A08049B1344049362E09DF89A
:10721000043003F00303DBB2012B5BD1BDF8043073
:10722000C3F38313DBB2062B28BF0623DAB2BDF803
:10723000043062F38913ADF80430BDF80430C3F3B1
:107240008313DBB202330E939DF80430C3F3C20301
:10725000DBB20F930E9B9B0019460D4805F0B9FB5E
:107260001790179B002B35D0179805F043FC01A908
:10727000169B0822179805F0F9FC169B0833169305
:10728000002315931DE000BF1C3100209822002030
:10729000EC3A040028310020049B5A1C0492109AF6
:1072A000134002339B003F4A1344191D169B0422CE
:1072B000179805F0DBFC169B04331693159B0133DE
:1072C0001593BDF80430C3F38313DBB21A46159B44
:1072D0009342E1D3179B002B40D0324BD3F81034AC
:1072E0001493304BD3F81834002B1BD0179805F0AB
:1072F00010FC4DE000238DF84F301498FFF71EFB73
:107300000346002B02D001238DF84F309DF84F30FB
:10731000002B03D017991498FFF7CCFA149BDB6865
:107320001B681493149B002BE4D1179805F0F1FB14
:1073300000238DF803300DF10303184601F0ECFA39
:10734000184BD3F81834002B02D1049B154A9360D4
:107350009DF80330184601F0F5FA19E0114BD3F807
:107360001034129306E01298FFF7BEFA129BDB6806
:107370001B681293129B002BF5D10B4A0B4BD31AAF
:10738000DB081B0443F0020309491846FFF7B2FD6E
:10739000FFF72CFE034683F00103DBB2184619B059
:1073A0005DF804FB1C310020443B0400143B040046
:1073B000E03D040000B585B00023039323E0164BA5
:1073C000D3F81034029301238DF807300FE00298B0
:1073D000FFF7A3FA03461A46039B934203D1002307
:1073E0008DF8073006E0029BDB681B680293029B66
:1073F000002BECD19DF80730002B01D0039B07E058
:10740000039B01330393039B092BD8DD4FF0FF331C
:10741000184605B05DF804FB1C31002000B585B0AE
:1074200001900B468DF80330FFF7C4FF0390039BD8
:10743000B3F1FF3F01D1039B22E0039BDBB219466E
:107440000198FFF75DFA104BD3F81034002B08D1E8
:107450000D4A019BC2F81034019BDB6800221A60C0
:107460000DE0094BD3F81034DA68019BDB68126831
:107470001A60054BD3F81034DB68019A1A60039B3D
:10748000184605B05DF804FB1C31002000B583B040
:107490000C4BD3F8103401930A4B01221A7009E007
:1074A0000198FFF742FA0198FFF712FA019BDB6897
:1074B0001B680193019B002BF2D100BF00BF03B0FA
:1074C0005DF804FB1C31002082B00190009100BFE8
:1074D00002B0704710B584B003900291039BDB8823
:1074E000002B0AD0039BDB881A461F4B00931346E0
:1074F0001E4A1F49029804F0E3F9039B1B7A052BEF
:107500002ED0039B5B7A002B12D0039B9B881A46DC
:10751000039B1B7A19461046FFF79CFA03461A464E
:10752000144B53F822301A461349029804F0C8F954
:10753000039B1B6819460298FFF7C6FF039B1B7A43
:107540001A460E4B53F82240039B9B880021184695
:10755000FFF760FA034622460949029804F0B0F9A1
:1075600000BF04B010BD00BF143E0400243E040060
:107570005C3E0400B0220020743E04009C220020E7
:10758000783E040000B585B00390029113468DF853
:107590000730039B1B7A052B0FD0039B5B7A002BD4
:1075A00006D00D4B1B681A460C49029804F088F966
:1075B0000B49029804F084F907E09DF80730002B8E
:1075C00003D00749029804F07BF9029804F056F9B9
:1075D00000BF05B05DF804FBB0220020743E04003B
:1075E000843E040030B58BB0079006910592049359
:1075F0000E9B1B7B8DF827300E9B00221A730E9971
:107600000498FFF767FF059B062B7FD801A252F86D
:1076100023F000BF317602003B7602004B76020079
:107620005F7602007D760200A5760200D576020024
:1076300007990E9804F044F969E0069B1B681A4606
:1076400007990E9804F03CF961E0069B1A68069BC6
:1076500004331B6807990E9804F032F957E0069B33
:107660001A68069B04331968069B08331B6800934D
:107670000B4607990E9804F023F948E0069B196819
:10768000069B04331868069B08331B68069A0C3265
:1076900012680192009303460A4607990E9804F077
:1076A0000FF934E0069B1868069B04331C68069BA0
:1076B00008331B68069A0C32126806991031096863
:1076C0000291019200932346024607990E9804F016
:1076D000F7F81CE0069B1C68069B04331D68069B9C
:1076E00008331B68069A0C32126806991031096833
:1076F00006981430006803900291019200932B4683
:10770000224607990E9804F0DBF800E000BF002243
:107710000E990498FFF736FF0E9B9DF827201A73E9
:1077200000BF0BB030BD00BF00B587B00390029121
:1077300001920093029B082B60D8009B1B7B8DF865
:107740001330009B00221A7300990198FFF7C2FEC4
:107750000023059314E0059A029B9A4209D2039AEA
:10776000059B13441B781A462649009804F0A8F894
:1077700003E02549009804F0A3F8059B0133059325
:10778000059B072BE7D92149009804F099F80023BD
:10779000059326E0059A029B9A421BD2039A059B09
:1077A00013441B788DF812309DF812307E2B0AD8C6
:1077B0009DF8123018461BF03BFD0346002B02D00B
:1077C0009DF8123000E02E231A461149009804F06B
:1077D00077F803E00F49009804F072F8059B013335
:1077E0000593059B072BD5D9012200990198FFF736
:1077F000C9FE009B9DF813201A7300E000BF07B07C
:107800005DF804FB883E0400903E0400943E0400B2
:10781000983E04009C3E040084B003468DF8073077
:107820009DF807305B08DBB21A460D4B9B5C8DF868
:107830000F309DF8073003F00103002B04D09DF8B2
:107840000F301B09DBB204E09DF80F3003F00F038B
:10785000DBB28DF80E309DF80E30184604B070473C
:107860005035002084B003460A468DF80730134691
:107870008DF806309DF8073003F00103002B01D08E
:107880000F2300E0F0238DF80F309DF8073003F050
:107890000103002B04D09DF806301B01DBB201E090
:1078A0009DF806308DF80E309DF807305B08DBB28E
:1078B0001A46114B9A5C9DF807305B08DBB21946FB
:1078C0009DF80F301340DAB20B4B5A549DF8073035
:1078D0005B08DBB21A46084B9A5C9DF807305B08E0
:1078E000DBB219469DF80E301343DAB2024B5A54FC
:1078F00000BF04B0704700BF5035002000B585B010
:1079000003468DF807300023039310E00F4B1A68ED
:10791000039BDB0013440293029B1B789DF8072016
:107920009A4201D1029B0DE0039B01330393084B64
:107930001B781A46039B9342E8DB064988200BF02C
:1079400033FB0023184605B05DF804FB3C350020EE
:1079500040350020AC3E040000B585B003460A4621
:107960008DF8073013468DF806309DF8073018461D
:10797000FFF7C4FF0390039B002B0BD0039B5B68B6
:10798000002B07D0039B5B689DF806109DF807202D
:107990001046984700BF05B05DF804FB2DE9F04F95
:1079A00087B003460A468DF80F3013468DF80E3027
:1079B0009DF80F301846FFF72FFF0346042B00F207
:1079C000C28001A252F823F0DD790200517A020050
:1079D0006D7A02009D7A0200B37A02009DF80E30A3
:1079E000002B00F0AD809DF80F3001211846FFF705
:1079F00039FF00238DF817300DF11703184600F0FA
:107A00008BFF9DF80F104FF001024FF00003A1F122
:107A10002004C1F1200003FA01F702FA04F427431D
:107A200022FA00F0074302FA01F6494BD3E900239A
:107A300046EA020100913B430193454BDDE9001208
:107A4000C3E900129DF81730184600F07BFF77E07D
:107A50009DF80E30002B01D0022200E000229DF89C
:107A60000F3011461846FFF7FDFE6CE09DF80E3012
:107A7000002B0CD09DF80F3003211846FFF7F2FEC3
:107A80009DF80F3001211846FFF766FF5BE09DF877
:107A90000F3001211846FFF7E5FE54E09DF80E3047
:107AA000002B4FD19DF80F3004211846FFF7DAFE66
:107AB00048E09DF80E30002B06D09DF80F300321D2
:107AC0001846FFF7CFFE3EE09DF80F300021184624
:107AD000FFF7C8FE9DF80F3000211846FFF73CFF66
:107AE00000238DF816300DF11603184600F014FF30
:107AF0009DF80F104FF001024FF00003A1F1200696
:107B0000C1F1200003FA01F502FA06F6354322FA24
:107B100000F0054302FA01F46FEA04086FEA050970
:107B20000B4BD3E9002308EA020A09EA030B084BCE
:107B3000C3E900AB9DF81630184600F003FF02E0E1
:107B400000BF00E000BF00BF07B0BDE8F08F00BF7E
:107B50004835002000B583B00648074B1B685B081A
:107B60000022194600F0B0FD019000BF03B05DF89F
:107B700004FB00BFD82200204435002000B587B0A8
:107B800001900023059328E01C4B1A68059BDB003D
:107B900013440493049B1B78184607F0B9FC034672
:107BA0008DF80F30049B5B78012B0CBF0123002361
:107BB000DBB21A469DF80F309A420CBF0123002316
:107BC0008DF80E30049B1B789DF80E201146184648
:107BD000FFF7E4FE059B01330593094B1B781A461A
:107BE000059B9342D0DB074BD3E90023134301D01D
:107BF000FFF7B0FF00BF07B05DF804FB3C35002085
:107C0000403500204835002000B585B001900B4676
:107C10008DF80330019BDBB21846FFF76FFE03902F
:107C2000039B1B78184607F073FC03468DF80B3056
:107C3000039B5B78012B0CBF01230023DBB21A46A8
:107C40009DF80B309A420CBF012300238DF80A30B7
:107C50009DF80A30002B06D0054BD3E900231343CF
:107C600001D1FFF777FF00BF05B05DF804FB00BF4F
:107C70004835002000B58BB003900B4601928DF87B
:107C80000B30019B092B01D8072367E007F034FB79
:107C9000034683F00103DBB2002B09D007F0C8FADA
:107CA0000990099B0893089B002B01D0089B55E085
:107CB0002C4A039B13602C4A9DF80B3013702B4AFF
:107CC000019B13601022002129481BF035FB294934
:107CD0004FF000024FF00003C1E9002331E09DF8AE
:107CE0000B30DB00039A1344079303238DF8143001
:107CF00000238DF815309DF816306FF300038DF8D2
:107D000016309DF816306FF341038DF816309DF84C
:107D100016306FF382038DF81630079B9B788DF831
:107D20001530079B1B78184605AB134A194607F018
:107D3000EFFA0990099B0693069B002B01D0069B46
:107D40000CE09DF80B305A1E8DF80B20002BC6D18D
:107D50000A4A00210A4800F07DFC034618460BB091
:107D60005DF804FB3C350020403500204435002000
:107D70005035002048350020097C02007D7B020040
:107D8000083F040000B583B0114B1B68002B04D1E1
:107D9000104940F235100BF007F9002301930CE075
:107DA0000B4B1A68019BDB0013441B78012118461A
:107DB00007F02AFB019B01330193074B1B781A46FE
:107DC000019B9342ECD30023184603B05DF804FBFB
:107DD0003C350020AC3E04004035002086B00390C6
:107DE0000291019201238DF817309DF81730204A37
:107DF000039B13601E4A029B53601D4A019B9360C4
:107E0000039B44F20102934212D0039B44F202020C
:107E1000934220D1019B164AD360154BDB681B6847
:107E2000134A9361124BDB685B68114AD36112E01D
:107E3000019B0F4A13610E4B1B699B680C4A5361EF
:107E40000B4B1B691B680A4A9361094B1B695B68F2
:107E5000074AD36100BF72B600BF00BF9DF817305C
:107E6000DBB2002BFAD162B600BF00BF06B070478C
:107E70006035002000B583B002900091019244F279
:107E8000010071466A4600F003F803B000BD00BF70
:107E900030B58BB007900691059272B600BFFFF720
:107EA000F5FA00BFFFF7B0F80346002BFAD1079BA5
:107EB00044F2020293422FD0079B44F20202934203
:107EC00069D8079B44F20102934237D0079B44F2E2
:107ED000010293425FD8079B012B05D0079B41F21B
:107EE000010293420CD056E0394A3A4BD31ADB08D0
:107EF0001B0443F0010338491846FEF7FBFF57E027
:107F0000334A344BD31ADB081B0443F001033349D3
:107F10001846FEF7EFFF4BE0059B09932C4A2D4BCB
:107F2000D31ADB081B0443F00100099B5B681A4667
:107F3000099B1B682A49FEF7FCFF39E0059B089363
:107F4000234A244BD31ADB081B0443F00104089B8B
:107F50009D68089B9B68184605F060FA0346184622
:107F6000089B5B681946089B1B68069A029201935E
:107F7000009103462A461B492046FFF71CF8144A85
:107F8000144BD31ADB081B0443F0010316491846AF
:107F9000FEF7B0FF0CE00E4A0E4BD31ADB081B04B1
:107FA00043F00103069A11491846FEF7B1FF00BFDE
:107FB0000F4B1B6803F00103002B00D000BE059A95
:107FC00006990798FFF70AFF00BF0BB030BD00BF4E
:107FD000443B0400143B04000C3F04002C3F04000D
:107FE000503F04006C3F0400943F0400A83F04008D
:107FF000F0ED00E02DE9F04383B0144801F09DF866
:10800000034600221C461546114BD3E9002314EB0E
:10801000020845EB0309CDE900890E4BD3E90023A3
:10802000DDE90001904271EB030307D2DDE9002393
:1080300012F1807643F10007CDE90067DDE9002306
:108040001046194603B0BDE8F08300BFF8220020B7
:10805000883500209035002088B001900091019B68
:108060000793009B0693079BD3E90223CDE90423E2
:10807000069BD3E90223CDE90223DDE90423DDE9F0
:108080000201904271EB03032CBF01230023DBB2FA
:10809000184608B070470000F0B585B00190019B0C
:1080A0005B69002B03D14349A5200AF07DFF002323
:1080B0008DF80F30404B1B78002B75D0019B002BA7
:1080C00072D0FFF797FF019BD3E90223904271EB37
:1080D000030358D300238DF80D300DF10D0318461E
:1080E00000F01AFC019B1B69002B06D101994FF08F
:1080F000FF324FF0FF33C1E902239DF80D301846DF
:1081000000F020FC019B5B69019A92691046984738
:1081100000238DF80C3003AB184600F0FDFB019BEB
:108120001B69002B1AD0019BD3E90223B3F1FF3F57
:1081300008BFB2F1FF3F11D0019BD3E9022301999F
:10814000096900200C460546161943EB0507019BFB
:10815000C3E9026701238DF80E3002E000238DF899
:108160000E309DF80C30184600F0ECFB9DF80E30F8
:10817000002B19D0019B1946104805F0A9F80123DE
:108180008DF80F3010E0019BD3E90223B3F1FF3FDC
:1081900008BFB2F1FF3F07D0019B1946074805F021
:1081A00097F801238DF80F309DF80F30184605B071
:1081B000F0BD00BFCC3F0400843500202C400400FB
:1081C00030B58BB0019000910D230993009B0022E4
:1081D0001A70019BD3E90223CDE90623FFF70AFFBA
:1081E000DDE90623141A63EB0105CDE90445DDE959
:1081F0000423012A73F1000318DB049BB3F5350F48
:1082000005D300F00BFB0246144B134400E0069B21
:1082100003934FF49603039A0021114800F080FE67
:108220000990099B002B05D1012314E000210C4883
:1082300000F04EFF099B0D2B07D10198FFF72CFF93
:1082400003461A46009B1A7004E006494FF48670F4
:108250000AF0AAFE002318460BB030BDFFFFB400A1
:10826000F8220020CC3F040000B583B0044805F09C
:1082700069F80190019B184603B05DF804FB00BF4C
:108280002C40040000B583B0044805F07DF801904F
:10829000019B184603B05DF804FB00BF2C400400AE
:1082A00000B583B0FFF7E0FF0190019B002B06D0E3
:1082B00001994FF0FF324FF0FF33C1E90223019BD8
:1082C000002BEFD100BF00BF03B05DF804FB00003E
:1082D000054BD3E9002312F1807043F10001024BFA
:1082E000C3E9000100BF70478835002010B582B097
:1082F0000190124B1B68002B1DD0019800F01DFF50
:1083000004460021019800F009FF03461946204663
:1083100000F078FA0346B3F5960F04D3084940F20B
:1083200041100AF041FE054B1B681846FFF7B4FEEA
:10833000024B00221A6000BF02B010BD8035002041
:10834000CC3F040000B583B00190FFF753FE024616
:108350000B460349C1E9002300BF03B05DF804FBED
:108360009035002000B587B00190FFF78BFF049097
:1083700000238DF81730049B002B58D0049BD3E9C1
:108380000223B3F1FF3F08BFB2F1FF3F02D1FFF775
:108390006BFF54E02E4B1B68002B03D101238DF89B
:1083A00017301DE0049BD3E90201294B1B68D3E978
:1083B0000223904271EB030312D201238DF8173090
:1083C000234B1B68D3E90223B3F1FF3F08BFB2F18F
:1083D000FF3F05D01E4B1B6819461E4804F078FF6E
:1083E0009DF81730002B2BD0FFF73EFF04900DF1C6
:1083F0000F0319460498FFF7E3FE0346002B12D043
:10840000134B1B68002B02D1019800F095FC104A19
:10841000049B13609DF80F3083F00103DBB2002B47
:10842000A3D000BF0FE00A4B00221A609DE7084B63
:108430001B68002B06D1019800F094FC02E094E741
:1084400000BF00E000BF00BF07B05DF804FB00BF45
:10845000803500202C40040000B587B001902B4AE5
:1084600003AB1946104602F01EFF049045E0049B42
:108470001B78022B2BD0022B2FDC002B02D0012BE0
:1084800011D02AE0049B5B68D3E90223B3F1FF3FDC
:1084900008BFB2F1FF3F22D0049B5B6819461C481D
:1084A00004F016FF1BE0049B5A681A4B1B689A42A3
:1084B00003D1184B00221A6012E0049B5B68194636
:1084C000134804F075FF03468DF8173008E0FFF7F6
:1084D000E7FE114B01221A7002E000BF00E000BF6E
:1084E0000A4A03AB1946104602F0F6FE074A03ABF0
:1084F0001946104602F0D7FE0490049B002BB6D11B
:1085000000BF00BF07B05DF804FB00BFF0350020DE
:108510002C400400803500208435002000B583B055
:108520000190019800F0C7FD0346002B01D0FFF732
:10853000CFFE0021019800F0DCFD0346002B02D0A5
:108540000198FFF7D3FE0121019800F0D2FD034608
:10855000002B02D00198FFF7F5FE0198FFF77CFF92
:108560000198FFF7FFFE00BF03B05DF804FB0000B9
:1085700008B5024800F0EEFD00BF08BDF82200205B
:1085800000B585B0034600918DF80730114A02AB63
:108590001946104602F05AFE0390039B002B13D09D
:1085A000039B9DF807201A70039B009A5A60094AA2
:1085B00002AB1946104602F062FE0346002B01D0C2
:1085C000FFF7D6FF002300E00423184605B05DF84E
:1085D00004FB00BFF035002000B583B0164B1B68CC
:1085E0000093164808235822154902F0E8FD01902F
:1085F000019B002B01D0019B19E06B46114A1946E3
:10860000114800F01BFB0190019B002B01D0019B46
:108610000DE001210C4800F03DFD01230B4A012132
:10862000094800F0B5FB0A4B01221A70019B18465D
:1086300003B05DF804FB00BF28400400F0350020C3
:10864000983500201D850200F8220020FFFF7F00E2
:108650008435002000B587B003900B4601928DF859
:108660000B30039B002B04D1164940F25A200AF02C
:108670009BFC019B002B04D1124940F25B200AF0C5
:1086800093FC019B002B01D1072317E0039B1B6880
:10869000059305994FF0FF324FF0FF33C1E90223F4
:1086A000059B019A5A619DF80B30012B0CBF0123E9
:1086B0000023DBB21A46059B1A610023184607B057
:1086C0005DF804FBCC3F0400F0B589B00390029143
:1086D0000192039B002B04D1264940F26B200AF043
:1086E00063FC039B069300238DF817300DF11703ED
:1086F000184600F011F9069BD3E90223B3F1FF3FBE
:1087000008BFB2F1FF3F11D1FFF774FC02460B46E0
:10871000029900200C460546161943EB0507069BF7
:10872000C3E9026701238DF81F3002E000238DF8B2
:108730001F309DF81730184600F004F99DF81F30DF
:1087400083F00103DBB2002B01D000230EE0069B77
:10875000019A9A61069B1B69002B02D0069B029A24
:108760001A6106990020FFF70BFF0346184609B06F
:10877000F0BD00BFCC3F040000B587B00190019B65
:10878000002B04D11E4940F293200AF00DFC019BFE
:10879000049300238DF80F300DF10F03184600F0FD
:1087A000BBF8049BD3E90223B3F1FF3F08BFB2F14A
:1087B000FF3F03D100238DF8173009E004994FF0F3
:1087C000FF324FF0FF33C1E9022301238DF8173048
:1087D0009DF80F30184600F0B5F89DF8173083F07B
:1087E0000103DBB2002B01D0002304E00499012037
:1087F000FFF7C6FE0346184607B05DF804FB00BF4E
:10880000CC3F040082B001900091019A009BD31AE2
:1088100023F07F43184602B07047000008B50348B4
:1088200000F08BFC0346184608BD00BFF82200206C
:1088300082B0EFF310830093009B019372B600BFE8
:10884000019B184602B0704762B600BF00BF704778
:1088500000B585B00190FFF7EBFF0390164B9B68C6
:10886000002B1BD1144B01229A60144BD3F88020AB
:10887000134B1340104A1360104B114AC3F8802069
:108880000E4BD3F884300C4A53600C4B4FF0FF3240
:10889000C3F88420019B00221A7002E0019B012290
:1088A0001A70039B002B01D1FFF7CEFF002318465F
:1088B00005B05DF804FB00BF0436002000E100E0D5
:1088C000FC06FFBD00B585B003468DF80730104BA0
:1088D0009B68002B16D09DF80730002B12D1FFF7B4
:1088E000A7FF03900B4A0A4B1B681360094A084B09
:1088F0005B685360064B00229A60039B002B01D1FA
:10890000FFF7A2FF0023184605B05DF804FB00BF87
:108910000436002000E100E000B583B0019000F0D3
:108920002BF80346012B03D0054943200AF03CFBFA
:108930000198FFF78DFF00BF03B05DF804FB00BF97
:108940003840040000B583B003468DF8073000F0CE
:1089500013F80346012B03D0064951200AF024FBEB
:108960009DF807301846FFF7ADFF00BF03B05DF874
:1089700004FB00BF3840040084B0EFF3058301938B
:10898000019BC3F308030393039B002B0DD1EFF36B
:1089900014830093009B0293029B03F00103002BBE
:1089A0000CBF01230023DBB200E00123184604B012
:1089B0007047000082B003468DF807309DF90730FC
:1089C000002B0CDB9DF8073003F01F0205499DF9D1
:1089D00007305B09012000FA02F241F8232000BFB2
:1089E00002B0704700E100E082B003468DF8073026
:1089F0009DF90730002B0DDB9DF8073003F01F02B7
:108A000006499DF907305B09012000FA02F2403364
:108A100041F8232000BF02B0704700BF00E100E032
:108A200082B0034600918DF807309DF90730002B86
:108A30000ADB009BDAB20C499DF907305201D2B231
:108A40000B4483F800230BE0009BDAB207499DF842
:108A5000073003F00F03043B5201D2B20B441A76E5
:108A600000BF02B0704700BF00E100E000ED00E091
:108A700000B583B003460A468DF8073013468DF8DB
:108A800006309DF80630012B03D99DF80630032BE4
:108A90000BD99DF80630042B03D99DF80630072B1F
:108AA00003D908496B200AF07FFA9DF806209DF94A
:108AB000073011461846FFF7B3FF00BF03B05DF85B
:108AC00004FB00BF9C40040000B583B003468DF852
:108AD00007309DF907301846FFF76CFF00BF03B061
:108AE0005DF804FB00B585B00190019B002B0AD016
:108AF000074B43F001030393019B9B010293039BEC
:108B00000298984700E000BF05B05DF804FB00BF85
:108B1000A041040084B0039002910192039B029A49
:108B200002F5A872019943F8221000BF04B0704703
:108B300082B001900091019B009A02F5A87253F84F
:108B40002230184602B0704782B001900091019B1C
:108B5000009AC3F8042300BF02B0704782B00190AE
:108B60000091019B009AC3F8082300BF02B0704730
:108B700082B001900B46ADF80230BDF80230019A88
:108B800013441B68184602B0704784B001900B462E
:108B9000ADF80230BDF80230019A134400221A6089
:108BA000BDF80230019A13441B680393039B00BF76
:108BB00004B0704782B00190019BD3F80435184689
:108BC00002B0704700B583B001900091009BB3F5EF
:108BD000805F04D306494FF4BE700AF0E5F9019BAB
:108BE000009AC3F8082500BF03B05DF804FB00BF7E
:108BF000CC40040082B001900B468DF803309DF804
:108C00000320019B13441A460123136000BF02B0E6
:108C1000704782B001900091019B009AC3F84423F1
:108C200000BF02B0704782B001900091019B009A92
:108C3000C3F8482300BF02B07047000000B587B0FA
:108C4000039002910192039B002B03D133495520DD
:108C50000AF0AAF9029B002B03D1304956200AF0F2
:108C6000A3F9019B002B03D12C4957200AF09CF952
:108C7000039B5B7919462A4A019B42F82130039BEA
:108C80005B79284ADB0013441B79002B0ED00823A4
:108C90000593254A254BD31ADB081B0443F0020336
:108CA00023491846FEF726F9059B32E0039B1A6814
:108CB000029B1B8819461046FFF784FF039B93F91C
:108CC0000420029B9B7819461046FFF7D1FE039BB8
:108CD00093F904301846FFF7F7FE039B5B79114ABE
:108CE000DB00134401221A71039B5B7919460D4A7C
:108CF000039B42F83130002305930B4A0B4BD31AE8
:108D0000DB081B0443F003030A491846FEF7F2F898
:108D1000059B184607B05DF804FB00BFFC4004004B
:108D20001036002014360020543B0400143B04008D
:108D3000544104007841040000B583B00190019BC8
:108D4000002B03D1064987200AF02EF9019B1B68EE
:108D500000211846FFF74EFF00BF03B05DF804FB8B
:108D6000FC40040000B583B00190019B002B03D1AF
:108D700006498D200AF018F9019B1B68042118464A
:108D8000FFF738FF00BF03B05DF804FBFC400400B0
:108D900000B587B00390029101928DF80330039BD8
:108DA000002B03D1214996200AF0FEF84FF48032BF
:108DB000029B02FA03F30593029B50339BB29B0084
:108DC000ADF81230019B23F07F430193039B1B6896
:108DD00005991846FFF7C2FE039B1B6805991846C4
:108DE000FFF721FF039B1B68BDF8122011461846B0
:108DF000FFF7CBFE039B1B68019A02991846FFF709
:108E000089FE039B1B6805991846FFF702FF9DF832
:108E10000330002B05D0039B1B6805991846FFF70C
:108E200093FE00BF07B05DF804FB00BFFC400400E8
:108E300000B585B00390029113468DF80730039B6F
:108E4000002B03D10B49A9200AF0AEF8039B1B6845
:108E500002991846FFF7DDFE9DF80730002B05D07C
:108E6000039B1B6802991846FFF76EFE00BF05B012
:108E70005DF804FBFC40040000B583B00190009154
:108E8000019B002B03D10A49B3200AF08DF8019B06
:108E90001B6800991846FFF7C6FE019B1B680099E6
:108EA0001846FFF75BFE00BF03B05DF804FB00BF90
:108EB000FC40040000B583B001900B46ADF80230D1
:108EC000019B002B03D10F49BA200AF06DF8019BDA
:108ED0001B68BDF8022011461846FFF749FE0346FD
:108EE000002B09D0019B1B68BDF8022011461846D3
:108EF000FFF74BFE012300E00023184603B05DF8A6
:108F000004FB00BFFC40040082B001900091019A74
:108F1000009BD31A23F07F43184602B0704700002D
:108F200000B58BB00390029101920093039B002B3C
:108F300003D15749CD200AF037F84FF48032029B15
:108F400002FA03F30993029B50339BB29B00ADF8E6
:108F50002230019B23F07F43019309990398FFF787
:108F60008BFF039B1B681846FFF724FE0790039BAB
:108F70001B6802991846FFF7DBFD0690039B1B68F0
:108F8000079A02991846FFF7C5FD039B1B68BDF8B9
:108F9000222011461846FFF7F8FD07990698FFF7BB
:108FA000B3FF0346012B0AD11020FFF79BFD039B63
:108FB0001B68BDF8222011461846FFF7E6FD039B0B
:108FC0001B681846FFF7F6FD079007990198FFF711
:108FD0009BFF0590039B1B6809991846FFF719FE34
:108FE000059B012B15D1039B1868019B01331A4681
:108FF0000299FFF78FFD1020FFF774FD039B1B689C
:109000001846FFF7D7FD0246079B934235D00D2344
:1090100039E0039B1B68019A02991846FFF77AFD15
:10902000039B1B681846FFF7C5FD0790019B013B9A
:1090300007991846FFF768FF0590009BC3F1FF13DF
:1090400003F57F43059A9A4201D90D231BE0059B46
:10905000002B12D1039B1868019B01331A46029919
:10906000FFF758FD039B1B681846FFF7A3FD024658
:10907000079B934201D00D2305E001220999039833
:10908000FFF7D6FE002318460BB05DF804FB00BFC7
:10909000FC40040000B583B001900B468DF803300E
:1090A0009DF803301A4602210198FFF7C1FE00BF68
:1090B00003B05DF804FB00B583B001904FF48271FA
:1090C0000198FFF7F7FE0346184603B05DF804FB6E
:1090D00000B583B0019000914FF48032009B02FAFA
:1090E00003F319460198FFF7C7FE00BF03B05DF810
:1090F00004FB00B585B001900091009B50339BB2FA
:109100009B00ADF80E30BDF80E3019460198FFF700
:10911000D1FE0346184605B05DF804FB00B583B0E8
:1091200001900091019B1B6800991846FFF700FD14
:109130000346184603B05DF804FB00B583B0019008
:10914000019B1B681846FFF735FD0346184603B020
:109150005DF804FB00B583B00190019B93F90430E6
:109160001846FFF741FC00BF03B05DF804FB0000A8
:1091700008B5044B1B68044A12681046984700BFA4
:1091800008BD00BF103600201436002082B00190C8
:10919000019B03F00303002B0CBF01230023DBB270
:1091A000184602B07047000000B585B0019000235A
:1091B00003930EE00B4A039B52F82330002B05D09B
:1091C000084A039B52F8233001989847039B0133C8
:1091D0000393039B032BEDD900BF00BF05B05DF8DF
:1091E00004FB00BF2C36002082B001900091019B4F
:1091F0001B78013B052B61D801A252F823F000BF78
:109200001992020021920200479202007992020014
:1092100099920200B5920200009B00221A704EE063
:10922000009B01221A70019B1A89009B9A81019B65
:109230009A88009BDA81019BDA68009B9A60009B08
:1092400000221A743BE0009B02221A70019B1A89CB
:10925000009B9A81019B9A88009BDA81019BDA68C6
:10926000009B9A60019B9B7D062B0CBF0123002372
:10927000DAB2009B1A7422E0009B03221A70019B51
:10928000DA88009B9A81019B1A89009BDA81019BF5
:10929000DA68009B9A6012E0009B04221A70019B1E
:1092A000DA88009B9A81009B0022DA81009B0022D1
:1092B0009A6004E0009B05221A7000E000BF00BF26
:1092C00002B0704784B001900091019B0393039A10
:1092D000009B9A4206D2039B1B68B3F1FF3F01D06B
:1092E000012300E0002303F00103DBB2184604B0C1
:1092F000704782B00190019B5B8803339B00019A09
:109300001344184602B0704700B583B00190009135
:109310000198FFF7EEFF0246009B934201D2022321
:1093200011E0019B9B884FF6FF72934208D0019B8E
:109330001B88002B04D0019B9B68B3F1FF3F01D138
:10934000012300E00023184603B05DF804FB000091
:1093500000B583B00190019B002B13D00D4BDB684F
:109360001A46019B93420DD30A4B1B691A46019B77
:10937000934207D80198FFF709FF0346002B01D05D
:10938000012300E0002303F00103DBB2184603B021
:109390005DF804FB6022002082B00190019B002B4D
:1093A00004D0019B1B680B4A934201D003230DE0BC
:1093B000019B04331B68084A934204D0074A934236
:1093C00003D1012302E0002300E00323184602B08A
:1093D000704700BFDEC0ADDEFE011EF1FF011EF1D1
:1093E00084B00190019B1B68B3F1FF3F06D0019B45
:1093F0001B680E4A934201D0002314E0012303931B
:109400000CE0039B9B00019A13441B68B3F1FF3FE0
:1094100001D0002307E0039B01330393039BB3F5C3
:10942000806FEED30123184604B07047DEC0ADDE76
:1094300082B003460A46ADF806301346ADF8043054
:10944000BDF80620134913469B0013449B000B44B0
:1094500008331A88BDF804301344ADF80430BDF861
:1094600006200C4913469B0013449B000B440A330F
:109470001A88BDF804301344ADF80430BDF8043048
:10948000B3F5806F94BF01230023DBB2184602B00E
:10949000704700BFDC36002084B00190009148F294
:1094A000096303930023ADF80A3027E0BDF80A20D2
:1094B000164913469B0013449B000B4404331B685E
:1094C000009A9A4215D9BDF80A20104913469B000C
:1094D00013449B000B4404331B6803F58053009A2C
:1094E0009A4206D200230393019BBDF80A201A80FA
:1094F00008E0BDF80A300133ADF80A30BDF80A3093
:10950000012BD3D9039B184604B07047DC360020EA
:1095100000B589B0039002910192039B03F580533B
:109520000693039B08330393029B02221A80039B3A
:10953000079332E006990798FFF7E6FE03468DF899
:1095400017309DF81730002B0AD1079B9A68184BEB
:109550001B689A4213D9079B9B68154A13600EE05B
:10956000019B002B02D0019B01221A709DF817303D
:10957000022B04D1029B4FF480621A8014E0029BFC
:109580001A88079B5B8813449BB203339AB2029BF1
:109590001A800798FFF7ADFE079006990798FFF726
:1095A00091FE0346002BC5D109B05DF804FB00BF56
:1095B0003C36002082B001900091009B9B7D022BE5
:1095C00009D9019B1A89009BDB8813449BB20333A2
:1095D0009AB2019B1A81019B5A89009BDB88D31A9E
:1095E0009BB2033B9AB2019B5A8100BF02B0704705
:1095F00000B583B0074B1B6819460023009308236E
:10960000054A064802F048FD0346184603B05DF8D7
:1096100004FB00BF04370020FC410400602200204E
:1096200000B585B003900399002300930823044AF2
:10963000044802F031FD0346184605B05DF804FB0E
:10964000044204006022002000B585B0034600916A
:10965000ADF8063000238DF80F30BDF80630033327
:10966000ADF80A30BDF80A3040F2FE32934202D91A
:1096700048F208634BE00023ADF80C303BE0BDF846
:109680000C20254913469B0013449B000B441B7878
:10969000002B2BD1BDF80A20BDF80C30114618461E
:1096A000FFF7C6FE0346002B20D001238DF80F30B4
:1096B000009BBDF80C201A80BDF80C2016491346FB
:1096C0009B0013449B000B440A331988BDF80C20FF
:1096D000BDF80A300B4498B20F4913469B0013445F
:1096E0009B000B440A3302461A8008E0BDF80C3098
:1096F0000133ADF80C30BDF80C30012BBFD99DF80B
:109700000F30002B01D0002301E048F20663184619
:1097100005B05DF804FB00BFDC36002082B00346D4
:109720000A46ADF806301346ADF80430BDF8042003
:109730000D4913469B0013449B000B440A331A88BF
:10974000BDF80630D31A9BB2BDF80420033B98B293
:10975000054913469B0013449B000B440A33024601
:109760001A8000BF02B07047DC36002008B5012126
:10977000024801F020FF0346184608BD3C36002091
:1097800000B585B003460091ADF80630BDF806205F
:10979000244913469B0013449B000B4404331B686D
:1097A00003F580530293009B1B680393039B002BDC
:1097B00004D00398FFF79DFD039026E0BDF8062036
:1097C000184913469B0013449B000B4404331B6849
:1097D0000833039319E002990398FFF795FD0346B8
:1097E000022B10D0022B10DC002B02D0012B05D055
:1097F0000BE0009B039A1A6001230EE00398FFF729
:1098000078FD039001E0002307E002990398FFF739
:1098100059FD0346002BDED10023184605B05DF844
:1098200004FB00BFDC36002000B585B0019000913C
:10983000019B5B681846FFF78BFD0346002B19D090
:10984000019B1A89244B1B899A4213D1019B1A68E8
:10985000019B5B689B689A420CD1019B5B6819462F
:109860000098FFF719FE0346002B0CBF01230023CD
:10987000DBB22CE0009B00221A8023E0002302933D
:1098800010E0029B0393039B9A68019B1B689A421A
:1098900008D1029A019B5A600F4B1A89019B1A81C9
:1098A000012314E0009B1B8802AA11461846FFF70B
:1098B00067FF0346002BE4D1009B1B8801339AB25B
:1098C000009B1A80009B1B88012BD7D900231846C8
:1098D00005B05DF804FB00BF0C37002000B587B071
:1098E0000390029101920093324B1B78DBB283F01C
:1098F0000103DBB2002B02D048F2016355E0019B6B
:10990000002B02D0009B002B49D148F204634CE0AD
:10991000009B9B881946284A0B469B000B449B00E2
:1099200013441B78002B33D124E0009B1B68059364
:10993000039B002B06D0059B9A88039B1B889A42A9
:1099400000D017E0029B002B06D0059B1A88029BD3
:109950001B889A4200D00DE0059B9A68019B1A6013
:10996000009B1A68019B5A60144B1A89019B1A814B
:1099700000231AE0009B9B88009A11461846FFF7C7
:10998000FFFE0346002BD0D1009B00221A6000E0AE
:1099900000BF009B9B8801339AB2009B9A80009B7A
:1099A0009B88012BB4D948F20963184607B05DF8CB
:1099B00004FB00BF1C360020DC3600200C370020E2
:1099C00000B587B00291019200930346ADF80E30C6
:1099D000BDF80E20324913469B0013449B000B44F4
:1099E00004331B6808330593BDF80E202C49134639
:1099F0009B0013449B000B4404331B6803F5805306
:109A0000049342E004990598FFF77EFC0346022B7D
:109A100025D0022B38DC002B16D0012B34D1019B32
:109A20001B8801339AB2019B1A80009B1A88059B00
:109A30005B8813449BB203339AB2009B1A8005984B
:109A4000FFF757FC059020E0029B1B8801339AB278
:109A5000029B1A800598FFF74CFC059015E0019BCE
:109A60001B8801339AB2019B1A80009B1A880499C3
:109A7000059BCB1A9B109BB213449AB2009B1A8091
:109A8000089B01221A7007E000BF04990598FFF7B0
:109A900019FC0346002BB5D107B05DF804FB00BFED
:109AA000DC36002000B585B00190084B01991846BE
:109AB00001F0CCFB03901C220021039819F03CFC20
:109AC000039B184605B05DF804FB00BFCC360020B0
:109AD00000B583B00190044B0199184601F0CFFB0B
:109AE00000BF03B05DF804FBCC36002000B583B0A6
:109AF0000190054B0199184601F0D5FB0346184625
:109B000003B05DF804FB00BFCC36002000B583B085
:109B10000190044B0199184601F0DEFB00BF03B031
:109B20005DF804FBCC36002008B50A4B1B68002BFF
:109B300004D109494FF4247009F036FA012105488F
:109B400001F051FD0346002B14BF01230023DBB2BB
:109B5000184608BD24360020A841040000B587B08F
:109B6000002305930023ADF812300323ADF8103025
:109B700000238DF80F300023ADF80C30F7E0BDF86E
:109B80000C301A03824BDB68134402930298FFF7F0
:109B900003FC03468DF807309DF80730032B08D0EF
:109BA000032B00F3DE80002B65D0012B00F09880A2
:109BB000D7E00298FFF714FC0346002B3BD0754B0F
:109BC0001B68002B29D0BDF81220734913469B0057
:109BD00013449B000B4402221A70BDF812206E49F8
:109BE00013469B0013449B000B440433029A1A60F3
:109BF000BDF81220684913469B0013449B000B4498
:109C0000083302221A80654ABDF812305380BDF82D
:109C100012300133ADF8123008E05E4A029B136047
:109C20005C4B02229A8001238DF80F30059B43F094
:109C30000103059396E0BDF81030013BADF81030FC
:109C4000BDF81220544913469B0013449B000B445B
:109C50000433029A1A60BDF812204F4913469B0044
:109C600013449B000B4403221A70BDF812300133D9
:109C7000ADF8123076E0BDF81220474913469B003C
:109C800013449B000B4400221A70BDF81220424975
:109C900013469B0013449B000B440433029A1A6042
:109CA000BDF8122013469B0013449B0008333A4A28
:109CB0009918BDF8122013469B0013449B001033E3
:109CC000354A13441A460298FFF722FC059B43F0DD
:109CD00002030593BDF812300133ADF8123041E0B4
:109CE0009DF80F30002B29D0BDF812202A491346C9
:109CF0009B0013449B000B4402221A70BDF81220F3
:109D0000244B1968244813469B0013449B000344CA
:109D100004331960BDF812201F4913469B001344F9
:109D20009B000B44083302221A801C4ABDF81230F3
:109D30005380BDF812300133ADF81230154A029B42
:109D40001360002216490298FFF7E2FB114B9B8833
:109D5000022B01D1042300E00823059A1343059345
:109D600000E000BFBDF80C300133ADF80C30BDF899
:109D70000C30022B7FF603AFBDF81030012B01D859
:109D800000230593059BDBB2184607B05DF804FB82
:109D90006022002004370020DC3600200C37002031
:109DA0000837002000B587B003900291039B022280
:109DB0009A750299039B1A1D0023009304230748F8
:109DC00002F06AF90590059B002B01D1002301E008
:109DD00048F20D63184607B05DF804FB60220020CE
:109DE00000B587B003900291039B1B69002B01D043
:109DF000032200E00122039B9A75029B0833194657
:109E0000039B03F10C02002300930423074802F094
:109E100043F90590059B002B01D1002301E048F296
:109E20000D63184607B05DF804FB00BF60220020F8
:109E300000B587B003900291039B1B78032B01D1DF
:109E4000052200E00622039B9A75029B0433194603
:109E5000039B03F10802002300930423074802F048
:109E60001BF90590059B002B01D1002301E048F26E
:109E70000D63184607B05DF804FB00BF60220020A8
:109E800000B587B003900B46ADF80A300399002364
:109E9000009304230D4A0E4802F0FEF80590059B3E
:109EA000002B02D048F20D630BE0BDF80A200949EF
:109EB00013469B0013449B000B44103301221A707D
:109EC0000023184607B05DF804FB00BF0C420400F5
:109ED00060220020DC36002000B589B0019002AB82
:109EE00000221A605A609A60019BDB6802930DF1B0
:109EF000160202AB11461846FFF796FC0346002BEC
:109F000012D0039B0693069B9A88019BDA80069BDE
:109F10001A88019B1A81039BBDF81620114618462A
:109F2000FFF7AEFF079002E048F209630793079B33
:109F3000184609B05DF804FB00B587B00190019B9D
:109F4000981D02AA0D4B0021FFF7C8FC0590059B48
:109F5000002B08D1039B094A928811461846FFF747
:109F60008FFF059004E008220021044819F0E4F96D
:109F7000059B184607B05DF804FB00BF1C370020A6
:109F800000B587B003900291039B01229A75029B52
:109F90000C331846039B1A69039BDB889B00002146
:109FA00000910146074802F077F80590059B002BC9
:109FB00001D1002301E048F20D63184607B05DF8B7
:109FC00004FB00BF6022002082B0184B1B890133C4
:109FD0009AB2164B1A81154B00225A80134B00225D
:109FE0001A730023ADF8063018E0BDF806201049BA
:109FF00013469B0013449B000B441A78BDF80630AF
:10A00000002A0CBF01220022D1B2084A13440A469A
:10A010009A72BDF806300133ADF80630BDF806304F
:10A02000012BE2D900BF00BF02B070470C370020FF
:10A03000DC36002084B0019000238DF80F3000231F
:10A04000ADF80C3031E0BDF80C301C4A13449B7A5B
:10A05000002B25D0BDF80C30184A134400229A7208
:10A06000BDF80C20164913469B0013449B000B447B
:10A070000C331B68002B13D1BDF80C20104913467C
:10A080009B0013449B000B4410331B78002B07D01C
:10A09000019BBDF80C201A8001238DF80F3008E0D9
:10A0A000BDF80C300133ADF80C30BDF80C30012B8D
:10A0B000C9D99DF80F30184604B070470C370020FE
:10A0C000DC36002008B5084B05221A70074B022227
:10A0D0009A80064B1B68194600230122044802F0AF
:10A0E000BDF80346184608BD0C3700200437002091
:10A0F0006022002000B583B0164B5B88ADF80230BB
:10A10000BDF80220144913469B0013449B000B44E6
:10A110000C331B68002B14D10E4B04221A70BDF8AF
:10A1200002200D4913469B0013449B000B4404334B
:10A130001B68194600230122084802F08FF801909D
:10A1400002E0FFF7BFFF0190019B184603B05DF8E6
:10A1500004FB00BF0C370020DC360020602200200A
:10A1600000B587B0104B5B680593104B1A680F4B16
:10A170009B889B0013440493059B5B880333ADF8D5
:10A180000E30094B03221A700499074B5A68BDF828
:10A190000E309B0000200090054801F07DFF034633
:10A1A000184607B05DF804FB0C3700200437002088
:10A1B0006022002000B583B00A4B5B880A4918462C
:10A1C000FFF7DEFA0346002B03D0FFF7C9FF01902B
:10A1D00002E0FFF78FFF0190019B184603B05DF886
:10A1E00004FB00BF0C3700201037002008B50A4BD5
:10A1F00006221A70084B5B881946084A0B469B00DA
:10A200000B449B00134404331B681846FFF708FAFD
:10A210000346184608BD00BF0C370020DC3600207E
:10A2200008B5054B07221A70034B00225A60FFF74E
:10A23000DFF90346184608BD0C37002008B50D4865
:10A24000FFF7F8FE034683F00103DBB2002B0BD0CF
:10A25000094B00221A70084B00225A80064B00223C
:10A260005A6041F61D5302E0FFF7A4FF034618466B
:10A2700008BD00BF0E3700200C37002082B0094B0C
:10A280005B680193019B5B880333ADF80230064B9A
:10A290009A88BDF8023013449AB2034B9A8000BFEB
:10A2A00002B070470C3700200437002082B01E4BEC
:10A2B0001B6801931D4B5B8819461D4A0B469B008A
:10A2C0000B449B00134404331B68174A1360174B5D
:10A2D0005B881946164A0B469B000B449B001344AF
:10A2E0000433019A1A60114B5B8819460E4B98880B
:10A2F0000F4A0B469B000B449B0013440833024655
:10A300001A80094B02229A80084B5B881946084A3A
:10A310000B469B000B449B001344103300221A7021
:10A3200000BF02B0704700BF043700200C37002088
:10A33000DC36002008B51A4B1B78072B2CD801A25D
:10A3400052F823F065A3020099A3020099A302002A
:10A3500071A302007DA3020089A3020089A3020069
:10A3600091A30200FFF730FE0D4B01221A7014E09A
:10A37000FFF784FF0A4B02221A700EE0FFF796FFE8
:10A38000074B06221A7008E0054B07221A7004E0FA
:10A39000034B01221A7000E000BF00BF08BD00BFE0
:10A3A0000C37002000B587B00190009148F20E6391
:10A3B0000593019B002B05D0624B00225A604FF49D
:10A3C0000643BAE0009B1B79032B00F2A98001A28F
:10A3D00052F823F0E5A30200F3A3020081A40200D7
:10A3E000A1A40200009B01221A71FFF701F9059058
:10A3F00099E000238DF813300023ADF810302BE0E6
:10A40000BDF81020504913469B0013449B000B4499
:10A410001B78022B1BD1BDF810204B4913469B0023
:10A4200013449B000B4400221A7001238DF8133053
:10A43000BDF81020444913469B0013449B000B4475
:10A4400004331B681846FFF7EBF8059008E0BDF8E9
:10A4500010300133ADF81030BDF81030012BCFD9DA
:10A460009DF8133083F00103DBB2002B5AD0354B3B
:10A4700001221A70334B00225A6041F61D535CE0F2
:10A48000009B00221A71314B02229A802F4B1B68CD
:10A490001946002301222E4801F0E0FE059042E01B
:10A4A000009B00221A712B4B5B88ADF80E30274BB6
:10A4B0001B680293BDF80E20234913469B001344EA
:10A4C0009B000B4404331B68204A1360BDF80E2028
:10A4D0001D4913469B0013449B000B440433029A0E
:10A4E0001A60BDF80E20194B9888174913469B0037
:10A4F00013449B000B44083302461A80134B02227C
:10A500009A80BDF80E20104913469B0013449B000F
:10A510000B4400221A700298FFF782F8059002E0BF
:10A5200000BF00E000BF059B002B05D0054B0022BB
:10A530005A6048F20D6300E00023184607B05DF84A
:10A5400004FB00BF1C360020DC360020043700204E
:10A55000602200200C37002000B587B001900091E8
:10A56000009B9B8A1A4613469B0013449B003B4A60
:10A5700013440493019B002B06D000990498FFF725
:10A5800019F84FF4064364E0049B5A68049B1B8946
:10A590009B0013440393009B9B7D062B4DD801A287
:10A5A00052F823F0E9A502000DA60200F5A502006D
:10A5B00001A60200C1A5020019A6020033A60200EE
:10A5C000274B00225A60009B9B69254A136025494E
:10A5D0002348FFF729F9034683F00103DBB2002B80
:10A5E00002D048F2096334E003990098FFF7DAFBE0
:10A5F000059026E003990098FFF7F2FB059020E014
:10A6000003990098FFF7BCFC05901AE003990098A5
:10A61000FFF70EFC059014E0009B06229A75104B84
:10A620005B68104A128811461846FFF729FC05900E
:10A6300007E041F61D53059303E048F20E630593CE
:10A6400000BF059B002B03D000990498FEF7B2FFD2
:10A65000059B184607B05DF804FB00BFDC36002000
:10A66000243700203037002000B585B001900091DC
:10A67000019B002B02D04FF4064329E0009B1B797D
:10A68000022B1BD0022B1DDC002B02D0012B08D08B
:10A6900018E0009B02221A710098FFF71DFC03903E
:10A6A00015E00098FFF748FC0390039B48F209620D
:10A6B00093420BD141F61D53039307E041F61D531E
:10A6C000039304E048F20E63039300E000BF039B92
:10A6D000184605B05DF804FB00B585B00190019BFC
:10A6E000002B02D04FF406433DE0214B1B7B002B97
:10A6F00003D01F4B00221A7301E0FFF71BFE1C4B17
:10A700001B78013B062B29D801A252F823F000BF89
:10A710002DA7020035A702003DA7020045A70200B1
:10A720005DA702004DA7020055A70200FFF786FDB6
:10A73000039017E0FFF73EFD039013E0FFF710FDD5
:10A7400003900FE0FFF7D6FC03900BE0FFF74EFD00
:10A75000039007E0FFF764FD039003E048F20E6307
:10A76000039300BF039B184605B05DF804FB00BFD0
:10A770000C37002000B589B00190404B1B68002BBE
:10A7800005D13F48FFF7B2F903463C4A13603B4B03
:10A790001B68002B04D13B494FF4B46008F004FC63
:10A7A000364B1B681B78013B052B2CD801A252F8B5
:10A7B00023F000BFCDA70200DDA70200DDA7020045
:10A7C000EDA70200EDA70200FDA702002B4B1B68BE
:10A7D00019460198FFF7E6FD019018E0274B1B682A
:10A7E00019460198FFF7B8FE019010E0234B1B6853
:10A7F00019460198FFF738FF019008E00198FFF72C
:10A800006BFF019003E048F20E63019300BF019BD0
:10A81000002B2BD003AB00221A605A609A60DA60DA
:10A820001A61019B41F61D52934201D0019B00E049
:10A8300000230493114B1B6803AA11461846FEF728
:10A84000D3FC03AB1846FEF7AFFC0C4B00221A609A
:10A85000002301930A48FFF759F9FFF765F903460A
:10A8600083F00103DBB2002B02D186E700BF00E0DA
:10A8700000BF00BF09B05DF804FB00BF3437002003
:10A8800038370020A841040008B50121054800F030
:10A890007AFE0346002B02D10020FFF76BFF00BFBA
:10A8A00008BD00BF2436002000B583B00190019B95
:10A8B0005B681846FFF75EFF00BF03B05DF804FB5E
:10A8C00000B58BB00390029101928DF80330002304
:10A8D000ADF824300023ADF82630534B1B78DBB2A3
:10A8E00083F00103DBB2002B02D048F2016397E052
:10A8F000029B002B02D148F2046391E0029B1B886B
:10A900004FF6FF72934203D0029B5B88002B02D16B
:10A9100048F2036384E0029B5B681846FEF736FC4E
:10A92000034683F00103DBB2002B02D048F202633E
:10A9300076E0019B002B11D1029B9B68ADF826307D
:10A940000DF11A02BDF8263011461846FEF77CFEBE
:10A950000890089B002B09D0089B61E0019B1B8895
:10A96000ADF81A30019B5B88ADF8263005AB184670
:10A97000FFF798F80790079B002B0AD1BDF81A2023
:10A98000BDF8263011461846FEF7C8FE48F20763A8
:10A9900046E0079B9DF803201A70079B00229A75DA
:10A9A000BDF81A20079B9A82029B5A68079B1A617E
:10A9B000FEF7DCFE0246079BDA60029B1A88079BC3
:10A9C0001A81029B5A88079B9A80079BBDF8262014
:10A9D000DA809DF80330032B06D1079B04229A7579
:10A9E000039B1A68079B9A61079BBDF824205A8134
:10A9F00005AB1846FFF76CF8039B002B0DD0039BAB
:10AA000000225A60079BDA68039B1A60039B0022AE
:10AA10009A72064B1A89039B1A81FFF735FF0023B0
:10AA200018460BB05DF804FB1C3600200C370020E4
:10AA300000B585B001900C4B1B68042B03D148F284
:10AA40000B6303930BE0084B1B680849019A41F81C
:10AA500023200121044800F0AEFD00230393039B53
:10AA6000184605B05DF804FB283600202C3600207F
:10AA700084B040F6F8731B68B3F1FF3F02D10F4B6F
:10AA80001B6802E040F6F8731B6803934FF0805395
:10AA90001B6902934FF080535B690193039BB3F1F1
:10AAA000FF3F04D1019B029A02FB03F300E0039BEA
:10AAB0000093009B184604B0704700BF14100010AC
:10AAC00000B583B04FF440530193FFF7D1FF034625
:10AAD000054A1361044B1A69019BD31A024AD360D9
:10AAE00000BF03B05DF804FB6022002008B5FFF74B
:10AAF000E7FF00220349044801F086FA034618469E
:10AB000008BD00BF284504006022002008B50448A5
:10AB10001C238C22034900F052FB00BF08BD00BF7C
:10AB2000CC3600204036002000B58BB002AB0022AE
:10AB30001A605A609A60DA601A61454B1B78DBB282
:10AB4000002B05D002AB1846FEF72EFB00237BE05E
:10AB5000404800F060FD0346002B01D0002373E065
:10AB6000FFF7C4FF0990099B002B01D0099B6BE004
:10AB7000FFF7CCFFFEF7F2FF03468DF823309DF878
:10AB80002330062B0ED0062B18DC002B01D0022B15
:10AB900014D12F4B00221A702D4B00225A6048F21C
:10ABA0000A6351E02A4B01221A70294B00225A6095
:10ABB00002AB1846FEF7F8FA002345E000BF01ABF0
:10ABC0001846FEF76FFF0790079B002B02D148F253
:10ABD000076339E0079B01221A709DF82330013B7F
:10ABE0000A2B29D801A252F823F000BF19AC0200A9
:10ABF00039AC020019AC020039AC020031AC0200E1
:10AC000039AC020031AC020039AC020021AC0200C8
:10AC100029AC020021AC0200079B00221A710CE053
:10AC2000079B03221A7108E0079B02221A7104E0B5
:10AC3000079B01221A7100E000BF01AB1846FEF726
:10AC400047FFFFF721FE002318460BB05DF804FB19
:10AC50001C3600202036002000B585B00190009100
:10AC6000019B002B02D0009B002B02D148F2046311
:10AC70002AE00DF10A0319460198FEF7D5FD0346B7
:10AC8000002B1FD0019B5B680393BDF80A301A4666
:10AC900013469B0013449B0008330D4A13440433AE
:10ACA0000121184600F087FC009B039A1A60019B63
:10ACB0005B6803F10C02009B5A60019B01229A72AF
:10ACC000002301E048F20963184605B05DF804FB73
:10ACD000DC36002000B585B00190019B002B02D12D
:10ACE00048F204633BE00DF10A0319460198FEF7B0
:10ACF0009BFD0346002B2ED0BDF80A3019461A4A98
:10AD00000B469B000B449B0013440C331B68002B29
:10AD10001DD0019B9B7A002B19D0BDF80A301A4632
:10AD2000114913469B0013449B000B440C331B68D2
:10AD3000591E0D4813469B0013449B0003440C33DB
:10AD40001960019B00229A720023039306E048F2E7
:10AD50000563039302E048F209630393039B1846DB
:10AD600005B05DF804FB00BFDC36002000B583B001
:10AD7000019000910223002200990198FFF7A0FDA5
:10AD80000346184603B05DF804FB00B583B001909C
:10AD90000091019B002B02D148F2046306E00323DB
:10ADA000002200990198FFF78BFD0346184603B077
:10ADB0005DF804FB00B585B00346ADF806301A4BCC
:10ADC0001B78DBB283F00103DBB2002B02D048F228
:10ADD000016324E0BDF806304FF6FF72934202D1C2
:10ADE00048F203631BE002AB1846FEF75BFE0390DC
:10ADF000039B002B02D148F2076310E0039B05225E
:10AE00001A70039B01221A71039BBDF80620DA8099
:10AE100002AB1846FEF75CFEFFF736FD002318462E
:10AE200005B05DF804FB00BF1C36002000B583B000
:10AE3000154B1B78DBB283F00103DBB2002B02D091
:10AE400048F201631BE06B461846FEF72BFE0190AB
:10AE5000019B002B02D148F2076310E0019B062200
:10AE60001A706B461846FEF733FE084B1B78002B12
:10AE700002D0064B01221A73FFF706FD0023184685
:10AE800003B05DF804FB00BF1C3600200C37002027
:10AE900000B585B0029201930346ADF80E300B4623
:10AEA000ADF80C3003A90DF10E00019B029AFEF7DC
:10AEB00015FD0346184605B05DF804FB00B585B0E6
:10AEC000034602910192ADF80E300DF10E01019B87
:10AED000029A0020FEF702FD0346184605B05DF811
:10AEE00004FB00B585B0034602910192ADF80E3027
:10AEF0000DF10E00019B029A0021FEF7EFFC0346C4
:10AF0000184605B05DF804FB82B001900091019BEA
:10AF1000002B02D0009B002B02D148F2046304E016
:10AF2000019B1A68009B1A600023184602B0704704
:10AF300010B586B003904FF48063ADF81430002351
:10AF4000ADF812304F4B1B78DBB283F00103DBB25C
:10AF5000002B02D048F2016391E0039B002B02D149
:10AF600048F204638BE012220021039818F0E4F900
:10AF7000039B03221A800023ADF816307AE0BDF857
:10AF80001620414913469B0013449B000B44083391
:10AF90001988BDF816203C4813469B0013449B00BB
:10AFA00003440A331B880B44ADF81030BDF816205B
:10AFB000354913469B0013449B000B4404331B6824
:10AFC0001846FEF7E9F90346032B05D1039B1B88BE
:10AFD000013B9AB2039B1A80BDF816202A491346FA
:10AFE0009B0013449B000B440C331968039B5A8845
:10AFF0008BB213449AB2039B5A80039B1989BDF804
:10B000001620214813469B0013449B0003440A3337
:10B010001B880B449AB2039B1A81039B5A89BDF883
:10B02000103013449AB2039B5A81BDF81420BDF826
:10B030001030D31AADF81230039B9B89BDF8122053
:10B040009A4203D9039BBDF812209A81039B191DD4
:10B05000039B9A1D039B03F10E04039B1033BDF861
:10B06000160000932346FEF7ABFCBDF81630013303
:10B07000ADF81630BDF81630012B80D900231846E4
:10B0800006B010BD1C360020DC36002086B00190D2
:10B090000091019B53E8011F8AB2D8890244988924
:10B0A000824228BF121A1889824202BFBFF32F8F33
:10B0B000002307E0C2EA010243E801200028E9D1A9
:10B0C0004FF001038DF80F30059002910492029A1F
:10B0D000009B1A609DF80F30DBB2184606B070472F
:10B0E00084B00190019951E8013FC3EA034341E86C
:10B0F0000132002AF7D10392029300BF04B07047D7
:10B1000086B001900091019B53E8021F1FFAA1F243
:10B11000D888824202BFBFF32F8F00230DE0D88969
:10B1200002449889824228BF121AC1EA024243E8C7
:10B1300002200028E8D14FF001038DF80F30059070
:10B1400002910492029A009B1A609DF80F30DBB2C4
:10B15000184606B0704784B00190019951E8023F4B
:10B16000C3EA234341E80232002AF7D10392029353
:10B1700000BF04B0704786B00190019B53E8021FE6
:10B18000DA88B1EB314F4FF0000017BF89B242EAC5
:10B19000024241EA024204E05968B1EB314F08BF74
:10B1A000012043E802210029E8D18DF80F00059124
:10B1B00004929DF80F30DBB2184606B0704784B099
:10B1C0000390029111461A460B46ADF8063013461D
:10B1D000ADF80430029B002B01D10E231FE0BDF817
:10B1E0000630BDF80420B3FBF2F101FB02F29B1A1A
:10B1F0009BB2002B01D0092311E0039B029A1A6035
:10B20000039B00225A60039B00229A60039BBDF8B7
:10B2100006209A81039BBDF80420DA81002318469A
:10B2200004B0704700B585B001900198FFF7A3FF07
:10B2300003468DF80F309DF80F30002B01D000230E
:10B2400000E01123184605B05DF804FB00B585B099
:10B2500001900091009B19460198FFF717FF0346E4
:10B26000002B07D0019B1B68009A1288134403939C
:10B27000039B00E00023184605B05DF804FB00B511
:10B2800083B001900091009B1A88009B5B889A42D2
:10B2900004D10198FFF724FF012300E000231846A2
:10B2A00003B05DF804FB00B585B001900091009BF0
:10B2B00019460198FFF724FF0346002B07D0019B96
:10B2C0001B68009A528813440393039B00E00023F9
:10B2D000184605B05DF804FB00B583B001900091FD
:10B2E000009B1A88009B5B889A4204D10198FFF763
:10B2F00032FF012300E00023184603B05DF804FB91
:10B3000000B585B001900091009B5B099B00019AFC
:10B310001A44009B03F01F03012101FA03F31946AD
:10B32000104600F0E8F8039000BF05B05DF804FB9C
:10B3300000B583B001900091009B5B099B00019ACE
:10B340001A44009B03F01F03012101FA03F319467D
:10B35000104600F0B8F80246009B03F01F0322FAE3
:10B3600003F303F00103002B14BF01230023DBB21E
:10B37000184603B05DF804FB00B585B0019000915C
:10B38000009B5B099B00019A1A44009B03F01F037A
:10B39000012101FA03F3DB431946104600F0DBF804
:10B3A000039000BF05B05DF804FB82B001900091EE
:10B3B000009B5B099B00019A13441A68009B03F0F1
:10B3C0001F0322FA03F303F00103002B14BF012330
:10B3D0000023DBB2184602B0704700B58DB0019073
:10B3E000009100230B934BE00B9B9B00019A1344AD
:10B3F0001B68DB430793079B93FAA3F30693069B13
:10B400000893089B002B01D1202303E0089BB3FA8B
:10B4100083F3DBB20A932BE00B9B5B010A9A134484
:10B420000993099A009B9A4226D209990198FFF73D
:10B430007FFF034683F00103DBB2002B01D0099BA1
:10B4400026E00B9B9B00019A13441B68DB4304938B
:10B45000049B93FAA3F30393039B0593059B002B93
:10B4600001D1202303E0059BB3FA83F3DBB20A93F7
:10B470000A9B1F2BD0D900E000BF0B9B01330B931D
:10B48000009B013B5B0901330B9A9A42ACD3009BB2
:10B4900018460DB05DF804FB10B487B00190009120
:10B4A000019B009A53E8004F104643E8000191F0D9
:10B4B000000FF7D1059404900391059B184607B03F
:10B4C0005DF8044B704710B487B001900091019B68
:10B4D000009A53E8004F44EA020043E8000191F06B
:10B4E000000FF6D1059404900391059B184607B010
:10B4F0005DF8044B704710B487B001900091019B38
:10B50000009A53E8004F44EA020043E8000191F03A
:10B51000000FF6D1059404900391049B184607B0E0
:10B520005DF8044B704710B487B001900091019B07
:10B53000009A53E8004F04EA020043E8000191F04A
:10B54000000FF6D1059404900391059B184607B0AF
:10B550005DF8044B704710B487B001900091019BD7
:10B56000009A53E8004F04EA020043E8000191F01A
:10B57000000FF6D1059404900391049B184607B080
:10B580005DF8044B704710B487B001900091019BA7
:10B59000009A53E8004F04EB020043E8000191F0E9
:10B5A000000FF6D1059404900391059B184607B04F
:10B5B0005DF8044B704710B487B001900091019B77
:10B5C000009A53E8004F04EB020043E8000191F0B9
:10B5D000000FF6D1059404900391049B184607B020
:10B5E0005DF8044B704710B487B001900091019B47
:10B5F000009A53E8004FA4EB020043E8000191F0E9
:10B60000000FF6D1059404900391049B184607B0EF
:10B610005DF8044B704700B583B00190012101989B
:10B62000FFF751FF0346184603B05DF804FB00B571
:10B6300083B0019001210198FFF75DFF0346184692
:10B6400003B05DF804FB00B583B0019000210198C0
:10B65000FFF769FF0346184603B05DF804FB0000DE
:10B6600000B583B001900B468DF80330019B002B91
:10B6700003D10849E82007F097FC019BDA689DF8A0
:10B6800003300199098A01FB03F31344184603B000
:10B690005DF804FB1042040000B583B001900091F6
:10B6A000019B002B03D10849F52007F07DFC009B8E
:10B6B000019AD2689B1A019A128AB3FBF2F3DBB2A9
:10B6C000184603B05DF804FB1042040000B585B0D5
:10B6D0000190019B002B01D10E234CE0019B1B68C4
:10B6E000002B03D12649FF2007F05EFC019B5B681D
:10B6F000002B04D122494FF4807007F055FC019BC8
:10B700009B68002B04D11E4940F2011007F04CFC4D
:10B71000019BDB68002B04D119494FF4817007F0BD
:10B7200043FC019B1B8A002B04D1154940F20310F6
:10B7300007F03AFC019B9A68019B5B68D31A8DF86D
:10B740000F30019B1B68019A52681A6007E0019B49
:10B750001A681368591C11609DF80F201A709DF823
:10B760000F305A1E8DF80F20002BF0D1019B1B6863
:10B7700000221A710023184605B05DF804FB00BFD3
:10B780001042040000B585B00190019B002B04D14C
:10B790001F494FF4927007F007FC00230393002326
:10B7A0008DF80A300DF10A031846FDF7B5F8019B34
:10B7B0001B681A68019B5B689A421FD9019B1B6832
:10B7C0001A68013A1A601B681B7819460198FFF73E
:10B7D00047FF0390019B9A68019B1B681B68D31A63
:10B7E0008DF80B30019B1B681B799DF80B209A424A
:10B7F00004D9019B1B689DF80B201A719DF80A3033
:10B800001846FDF79FF8039B184605B05DF804FB4A
:10B810001042040010B584B001900091019B002BF0
:10B8200004D1154940F2471007F0BEFB009B002BE6
:10B8300004D111494FF4A47007F0B6FB009B0393A9
:10B8400000238DF80B300DF10B031846FDF764F85B
:10B85000019B1B681C68621C1A6003990198FFF722
:10B860001BFF034623709DF80B301846FDF76AF85E
:10B8700000BF04B010BD00BF1042040000B583B08B
:10B880000190019B002B03D10C49312007F08CFB68
:10B89000019B9B68002B0CD0019B5B69019A10698E
:10B8A000019A1168019A92689847019B00229A6058
:10B8B00000E000BF03B05DF804FB00BF6C42040071
:10B8C0000EB400B584B00190019B002B03D1184940
:10B8D000422007F069FB019B5B69002B03D11449EF
:10B8E000432007F061FB019B1B68002B03D110492B
:10B8F000442007F059FB019B5B68002B03D10C49E6
:10B90000452007F051FB059B002B0AD00023039331
:10B9100006AB039303AB1A460599019800F0B0F902
:10B9200000E000BF04B05DF804EB03B0704700BF57
:10B930006C42040000B583B001900B468DF80330D3
:10B94000019B1A68019B9B68581C019988601344ED
:10B950009DF803201A70019B9A68019B5B689A42CC
:10B9600002D30198FFF78AFF00BF03B05DF804FB24
:10B9700000B587B0039002910192009300230593D4
:10B98000009B03F00103002B24D00BE0029B01334A
:10B990000293059B013305939DF8133019460398D4
:10B9A000FFF7C8FF029B1B788DF813309DF813300A
:10B9B000002BEBD106E0019B013B01932021039872
:10B9C000FFF7B8FF019A059B9A422ED9019B002BE5
:10B9D000F1D12AE0029B002B0BD0029817F0DFFC7C
:10B9E000059006E0019B013B019320210398FFF79E
:10B9F000A1FF019A059B9A420FD9019B002BF1D11F
:10BA00000BE0029B01330293059B013305939DF8E4
:10BA1000133019460398FFF78DFF029B1B788DF8B2
:10BA200013309DF81330002BEBD100BF07B05DF849
:10BA300004FB000000B589B00390029101920093CD
:10BA4000029B07930123069307E0079A019BB2FB31
:10BA5000F3F30793069B01330693079A019B9A42DF
:10BA6000F3D2009A069B9A4201D9009B06930B9B46
:10BA700003F00103002B22D10A9B002B1FD00B9B4C
:10BA800003F00203002B06D0009B002B03D13023D0
:10BA90008DF8173002E020238DF8173008E00A9B5C
:10BAA000013B0A939DF8173019460398FFF742FFB0
:10BAB0000A9B002B03D0069A0A9B9A42EFD30123DC
:10BAC0000793009B012B03D9009B013B009309E0E6
:10BAD000029A079BB2FBF3F30493049A019B9A42E8
